{
  "address": "0x9fE46736679d2D9a65F0992F2272dE9f3c7fa6e0",
  "abi": [
    {
      "inputs": [
        {
          "internalType": "uint256",
          "name": "_rewardRate",
          "type": "uint256"
        }
      ],
      "stateMutability": "nonpayable",
      "type": "constructor"
    },
    {
      "inputs": [],
      "name": "Staking_AlreadyFunded",
      "type": "error"
    },
    {
      "inputs": [],
      "name": "Staking_NotAlreadyFunded",
      "type": "error"
    },
    {
      "anonymous": false,
      "inputs": [
        {
          "indexed": true,
          "internalType": "address",
          "name": "previousOwner",
          "type": "address"
        },
        {
          "indexed": true,
          "internalType": "address",
          "name": "newOwner",
          "type": "address"
        }
      ],
      "name": "OwnershipTransferred",
      "type": "event"
    },
    {
      "anonymous": false,
      "inputs": [
        {
          "indexed": true,
          "internalType": "address",
          "name": "sender",
          "type": "address"
        },
        {
          "indexed": true,
          "internalType": "address",
          "name": "token",
          "type": "address"
        },
        {
          "indexed": false,
          "internalType": "uint256",
          "name": "amount",
          "type": "uint256"
        }
      ],
      "name": "Staked",
      "type": "event"
    },
    {
      "inputs": [],
      "name": "claimRewards",
      "outputs": [],
      "stateMutability": "nonpayable",
      "type": "function"
    },
    {
      "inputs": [
        {
          "internalType": "uint256",
          "name": "amount",
          "type": "uint256"
        }
      ],
      "name": "initialFund",
      "outputs": [],
      "stateMutability": "nonpayable",
      "type": "function"
    },
    {
      "inputs": [],
      "name": "owner",
      "outputs": [
        {
          "internalType": "address",
          "name": "",
          "type": "address"
        }
      ],
      "stateMutability": "view",
      "type": "function"
    },
    {
      "inputs": [],
      "name": "renounceOwnership",
      "outputs": [],
      "stateMutability": "nonpayable",
      "type": "function"
    },
    {
      "inputs": [],
      "name": "rewardToken",
      "outputs": [
        {
          "internalType": "contract IRewardToken",
          "name": "",
          "type": "address"
        }
      ],
      "stateMutability": "view",
      "type": "function"
    },
    {
      "inputs": [
        {
          "internalType": "address",
          "name": "",
          "type": "address"
        },
        {
          "internalType": "uint256",
          "name": "",
          "type": "uint256"
        }
      ],
      "name": "s_OwnerToStake",
      "outputs": [
        {
          "internalType": "uint256",
          "name": "amount",
          "type": "uint256"
        },
        {
          "internalType": "uint256",
          "name": "timestamp",
          "type": "uint256"
        }
      ],
      "stateMutability": "view",
      "type": "function"
    },
    {
      "inputs": [
        {
          "internalType": "uint256",
          "name": "",
          "type": "uint256"
        }
      ],
      "name": "s_TotalStakes",
      "outputs": [
        {
          "internalType": "uint256",
          "name": "amount",
          "type": "uint256"
        },
        {
          "internalType": "uint256",
          "name": "timestamp",
          "type": "uint256"
        }
      ],
      "stateMutability": "view",
      "type": "function"
    },
    {
      "inputs": [],
      "name": "s_isFunded",
      "outputs": [
        {
          "internalType": "bool",
          "name": "",
          "type": "bool"
        }
      ],
      "stateMutability": "view",
      "type": "function"
    },
    {
      "inputs": [],
      "name": "s_rewardRate",
      "outputs": [
        {
          "internalType": "uint256",
          "name": "",
          "type": "uint256"
        }
      ],
      "stateMutability": "view",
      "type": "function"
    },
    {
      "inputs": [],
      "name": "s_totalStaked",
      "outputs": [
        {
          "internalType": "uint256",
          "name": "",
          "type": "uint256"
        }
      ],
      "stateMutability": "view",
      "type": "function"
    },
    {
      "inputs": [
        {
          "internalType": "uint256",
          "name": "_rewardRate",
          "type": "uint256"
        }
      ],
      "name": "setRewardRate",
      "outputs": [],
      "stateMutability": "nonpayable",
      "type": "function"
    },
    {
      "inputs": [
        {
          "internalType": "address",
          "name": "token",
          "type": "address"
        }
      ],
      "name": "setRewardToken",
      "outputs": [],
      "stateMutability": "nonpayable",
      "type": "function"
    },
    {
      "inputs": [
        {
          "internalType": "address",
          "name": "token",
          "type": "address"
        }
      ],
      "name": "setStakingToken",
      "outputs": [],
      "stateMutability": "nonpayable",
      "type": "function"
    },
    {
      "inputs": [
        {
          "internalType": "address",
          "name": "token",
          "type": "address"
        }
      ],
      "name": "setStakingTokenAddress",
      "outputs": [],
      "stateMutability": "nonpayable",
      "type": "function"
    },
    {
      "inputs": [
        {
          "internalType": "uint256",
          "name": "amount",
          "type": "uint256"
        }
      ],
      "name": "stake",
      "outputs": [],
      "stateMutability": "nonpayable",
      "type": "function"
    },
    {
      "inputs": [
        {
          "internalType": "address",
          "name": "staker",
          "type": "address"
        }
      ],
      "name": "stakerRewards",
      "outputs": [
        {
          "internalType": "uint256[]",
          "name": "",
          "type": "uint256[]"
        }
      ],
      "stateMutability": "view",
      "type": "function"
    },
    {
      "inputs": [],
      "name": "stakingToken",
      "outputs": [
        {
          "internalType": "contract IERC20",
          "name": "",
          "type": "address"
        }
      ],
      "stateMutability": "view",
      "type": "function"
    },
    {
      "inputs": [
        {
          "internalType": "address",
          "name": "newOwner",
          "type": "address"
        }
      ],
      "name": "transferOwnership",
      "outputs": [],
      "stateMutability": "nonpayable",
      "type": "function"
    },
    {
      "inputs": [
        {
          "internalType": "uint256",
          "name": "amount",
          "type": "uint256"
        }
      ],
      "name": "withdraw",
      "outputs": [],
      "stateMutability": "nonpayable",
      "type": "function"
    }
  ],
  "transactionHash": "0x72402aff6bc9a77177d468c28085d9c4e3997a15bfaa06db5a415ac668e635d0",
  "args": [
    10000000000
  ],
  "numDeployments": 1,
  "solcInputHash": "e7aec1d145a632ac3b8254c240d5fc9f",
  "bytecode": "0x60806040523480156200001157600080fd5b50604051620022bd380380620022bd83398181016040528101906200003791906200028c565b620000576200004b620000b160201b60201c565b620000b960201b60201c565b80600381905550620000aa6040518060400160405280600c81526020017f6164647265737320746869730000000000000000000000000000000000000000815250306200017d60201b620012351760201c565b50620003d1565b600033905090565b60008060009054906101000a900473ffffffffffffffffffffffffffffffffffffffff169050816000806101000a81548173ffffffffffffffffffffffffffffffffffffffff021916908373ffffffffffffffffffffffffffffffffffffffff1602179055508173ffffffffffffffffffffffffffffffffffffffff168173ffffffffffffffffffffffffffffffffffffffff167f8be0079c531659141344cd1fd0a4f28419497f9722a3daafe3b4186f6b6457e060405160405180910390a35050565b6200021f8282604051602401620001969291906200039d565b6040516020818303038152906040527f319af333000000000000000000000000000000000000000000000000000000007bffffffffffffffffffffffffffffffffffffffffffffffffffffffff19166020820180517bffffffffffffffffffffffffffffffffffffffffffffffffffffffff83818316178352505050506200022360201b60201c565b5050565b60008151905060006a636f6e736f6c652e6c6f679050602083016000808483855afa5050505050565b600080fd5b6000819050919050565b620002668162000251565b81146200027257600080fd5b50565b60008151905062000286816200025b565b92915050565b600060208284031215620002a557620002a46200024c565b5b6000620002b58482850162000275565b91505092915050565b600081519050919050565b600082825260208201905092915050565b60005b83811015620002fa578082015181840152602081019050620002dd565b60008484015250505050565b6000601f19601f8301169050919050565b60006200032482620002be565b620003308185620002c9565b935062000342818560208601620002da565b6200034d8162000306565b840191505092915050565b600073ffffffffffffffffffffffffffffffffffffffff82169050919050565b6000620003858262000358565b9050919050565b620003978162000378565b82525050565b60006040820190508181036000830152620003b9818562000317565b9050620003ca60208301846200038c565b9392505050565b611edc80620003e16000396000f3fe608060405234801561001057600080fd5b50600436106101215760003560e01c80638da5cb5b116100ad578063ef772a6011610071578063ef772a60146102ba578063f0d38070146102d8578063f0f0b228146102f6578063f2fde38b14610326578063f7c618c11461034257610121565b80638da5cb5b1461021757806398378485146102355780639e447fc614610251578063a694fc3a1461026d578063b5e011411461028957610121565b80633c5c53bd116100f45780633c5c53bd146101865780634731586f146101b7578063715018a6146101d357806372f702f3146101dd5780638aee8127146101fb57610121565b80631e9b12ef146101265780632e1a7d4d146101425780633179317d1461015e578063372500ab1461017c575b600080fd5b610140600480360381019061013b9190611707565b610360565b005b61015c6004803603810190610157919061176a565b6103ac565b005b6101666106da565b60405161017391906117a6565b60405180910390f35b6101846106e0565b005b6101a0600480360381019061019b919061176a565b61083a565b6040516101ae9291906117c1565b60405180910390f35b6101d160048036038101906101cc919061176a565b61086e565b005b6101db610a39565b005b6101e5610a4d565b6040516101f29190611849565b60405180910390f35b61021560048036038101906102109190611707565b610a73565b005b61021f610abf565b60405161022c9190611873565b60405180910390f35b61024f600480360381019061024a9190611707565b610ae8565b005b61026b6004803603810190610266919061176a565b610b4f565b005b6102876004803603810190610282919061176a565b610b61565b005b6102a3600480360381019061029e919061188e565b610d90565b6040516102b19291906117c1565b60405180910390f35b6102c2610dd1565b6040516102cf91906117a6565b60405180910390f35b6102e0610dd7565b6040516102ed91906118e9565b60405180910390f35b610310600480360381019061030b9190611707565b610dea565b60405161031d91906119c2565b60405180910390f35b610340600480360381019061033b9190611707565b61118c565b005b61034a61120f565b6040516103579190611a05565b60405180910390f35b6103686112d1565b80600160006101000a81548173ffffffffffffffffffffffffffffffffffffffff021916908373ffffffffffffffffffffffffffffffffffffffff16021790555050565b6103b46106e0565b6000600460003373ffffffffffffffffffffffffffffffffffffffff1673ffffffffffffffffffffffffffffffffffffffff168152602001908152602001600020805480602002602001604051908101604052809291908181526020016000905b8282101561045b57838290600052602060002090600202016040518060400160405290816000820154815260200160018201548152505081526020019060010190610415565b505050509050600081519050600080600090505b828110156105b25783818151811061048a57610489611a20565b5b6020026020010151600001518510156105295784600460003373ffffffffffffffffffffffffffffffffffffffff1673ffffffffffffffffffffffffffffffffffffffff16815260200190815260200160002082815481106104ef576104ee611a20565b5b9060005260206000209060020201600001600082825461050f9190611a7e565b9250508190555084826105229190611ab2565b91506105b2565b6000600460003373ffffffffffffffffffffffffffffffffffffffff1673ffffffffffffffffffffffffffffffffffffffff168152602001908152602001600020828154811061057c5761057b611a20565b5b906000526020600020906002020160000181905550848261059d9190611ab2565b915080806105aa90611ae6565b91505061046f565b506105f26040518060400160405280600d81526020017f7472616e73666572696e676767000000000000000000000000000000000000008152508261134f565b6106316040518060400160405280600d81526020017f6d73672e73656e6465657272720000000000000000000000000000000000000081525033611235565b600160009054906101000a900473ffffffffffffffffffffffffffffffffffffffff1673ffffffffffffffffffffffffffffffffffffffff166323b872dd3033846040518463ffffffff1660e01b815260040161069093929190611b2e565b6020604051808303816000875af11580156106af573d6000803e3d6000fd5b505050506040513d601f19601f820116820180604052508101906106d39190611b91565b5050505050565b60035481565b60006106eb33610dea565b9050600081519050600080600090505b828110156107a55783818151811061071657610715611a20565b5b6020026020010151826107299190611ab2565b915042600460003373ffffffffffffffffffffffffffffffffffffffff1673ffffffffffffffffffffffffffffffffffffffff168152602001908152602001600020828154811061077d5761077c611a20565b5b906000526020600020906002020160010181905550808061079d90611ae6565b9150506106fb565b50600260009054906101000a900473ffffffffffffffffffffffffffffffffffffffff1673ffffffffffffffffffffffffffffffffffffffff166340c10f1933836040518363ffffffff1660e01b8152600401610803929190611bbe565b600060405180830381600087803b15801561081d57600080fd5b505af1158015610831573d6000803e3d6000fd5b50505050505050565b6005818154811061084a57600080fd5b90600052602060002090600202016000915090508060000154908060010154905082565b6108766112d1565b60011515600260149054906101000a900460ff161515036108c3576040517fbf0aab3b00000000000000000000000000000000000000000000000000000000815260040160405180910390fd5b6001600260146101000a81548160ff02191690831515021790555080600660008282546108f09190611ab2565b92505081905550610900816113eb565b600460008073ffffffffffffffffffffffffffffffffffffffff1673ffffffffffffffffffffffffffffffffffffffff168152602001908152602001600020604051806040016040528083815260200142815250908060018154018082558091505060019003906000526020600020906002020160009091909190915060008201518160000155602082015181600101555050600160009054906101000a900473ffffffffffffffffffffffffffffffffffffffff1673ffffffffffffffffffffffffffffffffffffffff166323b872dd3330846040518463ffffffff1660e01b81526004016109f293929190611b2e565b6020604051808303816000875af1158015610a11573d6000803e3d6000fd5b505050506040513d601f19601f82011682018060405250810190610a359190611b91565b5050565b610a416112d1565b610a4b60006115af565b565b600160009054906101000a900473ffffffffffffffffffffffffffffffffffffffff1681565b610a7b6112d1565b80600260006101000a81548173ffffffffffffffffffffffffffffffffffffffff021916908373ffffffffffffffffffffffffffffffffffffffff16021790555050565b60008060009054906101000a900473ffffffffffffffffffffffffffffffffffffffff16905090565b610af06112d1565b80600160006101000a81548173ffffffffffffffffffffffffffffffffffffffff021916908373ffffffffffffffffffffffffffffffffffffffff1602179055506000600260146101000a81548160ff02191690831515021790555050565b610b576112d1565b8060038190555050565b60001515600260149054906101000a900460ff16151503610bae576040517fb1d66a3e00000000000000000000000000000000000000000000000000000000815260040160405180910390fd5b610bb7816113eb565b600160009054906101000a900473ffffffffffffffffffffffffffffffffffffffff1673ffffffffffffffffffffffffffffffffffffffff166323b872dd3330846040518463ffffffff1660e01b8152600401610c1693929190611b2e565b6020604051808303816000875af1158015610c35573d6000803e3d6000fd5b505050506040513d601f19601f82011682018060405250810190610c599190611b91565b508060066000828254610c6c9190611ab2565b92505081905550600460003373ffffffffffffffffffffffffffffffffffffffff1673ffffffffffffffffffffffffffffffffffffffff168152602001908152602001600020604051806040016040528083815260200142815250908060018154018082558091505060019003906000526020600020906002020160009091909190915060008201518160000155602082015181600101555050600160009054906101000a900473ffffffffffffffffffffffffffffffffffffffff1673ffffffffffffffffffffffffffffffffffffffff163373ffffffffffffffffffffffffffffffffffffffff167f5dac0c1b1112564a045ba943c9d50270893e8e826c49be8e7073adc713ab7bd783604051610d8591906117a6565b60405180910390a350565b60046020528160005260406000208181548110610dac57600080fd5b9060005260206000209060020201600091509150508060000154908060010154905082565b60065481565b600260149054906101000a900460ff1681565b60606000600460008473ffffffffffffffffffffffffffffffffffffffff1673ffffffffffffffffffffffffffffffffffffffff168152602001908152602001600020805480602002602001604051908101604052809291908181526020016000905b82821015610e9357838290600052602060002090600202016040518060400160405290816000820154815260200160018201548152505081526020019060010190610e4d565b50505050905060008151905060008167ffffffffffffffff811115610ebb57610eba611be7565b5b604051908082528060200260200182016040528015610ee95781602001602082028036833780820191505090505b509050600080600090505b8381101561117f576000858281518110610f1157610f10611a20565b5b60200260200101516000015190506000868381518110610f3457610f33611a20565b5b60200260200101516020015190506000600580549050905060005b8181101561116857600060058281548110610f6d57610f6c611a20565b5b906000526020600020906002020160010154905082600183610f8f9190611ab2565b108015610f9c5750808410155b8015610fd857506005600183610fb29190611ab2565b81548110610fc357610fc2611a20565b5b90600052602060002090600202016001015484105b156110995760058281548110610ff157610ff0611a20565b5b9060005260206000209060020201600001546005838154811061101757611016611a20565b5b90600052602060002090600202016001015460056001856110389190611ab2565b8154811061104957611048611a20565b5b9060005260206000209060020201600101546110659190611a7e565b866003546110739190611c16565b61107d9190611c16565b6110879190611c87565b876110929190611ab2565b9650611134565b6001836110a69190611a7e565b820361113357600582815481106110c0576110bf611a20565b5b906000526020600020906002020160000154600583815481106110e6576110e5611a20565b5b906000526020600020906002020160010154426111039190611a7e565b866003546111119190611c16565b61111b9190611c16565b6111259190611c87565b876111309190611ab2565b96505b5b8688878151811061114857611147611a20565b5b60200260200101818152505050808061116090611ae6565b915050610f4f565b50505050808061117790611ae6565b915050610ef4565b5081945050505050919050565b6111946112d1565b600073ffffffffffffffffffffffffffffffffffffffff168173ffffffffffffffffffffffffffffffffffffffff1603611203576040517f08c379a00000000000000000000000000000000000000000000000000000000081526004016111fa90611d3b565b60405180910390fd5b61120c816115af565b50565b600260009054906101000a900473ffffffffffffffffffffffffffffffffffffffff1681565b6112cd828260405160240161124b929190611dda565b6040516020818303038152906040527f319af333000000000000000000000000000000000000000000000000000000007bffffffffffffffffffffffffffffffffffffffffffffffffffffffff19166020820180517bffffffffffffffffffffffffffffffffffffffffffffffffffffffff8381831617835250505050611673565b5050565b6112d961169c565b73ffffffffffffffffffffffffffffffffffffffff166112f7610abf565b73ffffffffffffffffffffffffffffffffffffffff161461134d576040517f08c379a000000000000000000000000000000000000000000000000000000000815260040161134490611e56565b60405180910390fd5b565b6113e78282604051602401611365929190611e76565b6040516020818303038152906040527fb60e72cc000000000000000000000000000000000000000000000000000000007bffffffffffffffffffffffffffffffffffffffffffffffffffffffff19166020820180517bffffffffffffffffffffffffffffffffffffffffffffffffffffffff8381831617835250505050611673565b5050565b60006005805490509050600081036114585760056040518060400160405280848152602001428152509080600181540180825580915050600190039060005260206000209060020201600090919091909150600082015181600001556020820151816001015550506115ab565b4260056001836114689190611a7e565b8154811061147957611478611a20565b5b906000526020600020906002020160010154101561152857600560405180604001604052808460056001866114ae9190611a7e565b815481106114bf576114be611a20565b5b9060005260206000209060020201600001546114db9190611ab2565b8152602001428152509080600181540180825580915050600190039060005260206000209060020201600090919091909150600082015181600001556020820151816001015550506115aa565b4260056001836115389190611a7e565b8154811061154957611548611a20565b5b906000526020600020906002020160010154036115a9578160056001836115709190611a7e565b8154811061158157611580611a20565b5b906000526020600020906002020160000160008282546115a19190611ab2565b925050819055505b5b5b5050565b60008060009054906101000a900473ffffffffffffffffffffffffffffffffffffffff169050816000806101000a81548173ffffffffffffffffffffffffffffffffffffffff021916908373ffffffffffffffffffffffffffffffffffffffff1602179055508173ffffffffffffffffffffffffffffffffffffffff168173ffffffffffffffffffffffffffffffffffffffff167f8be0079c531659141344cd1fd0a4f28419497f9722a3daafe3b4186f6b6457e060405160405180910390a35050565b60008151905060006a636f6e736f6c652e6c6f679050602083016000808483855afa5050505050565b600033905090565b600080fd5b600073ffffffffffffffffffffffffffffffffffffffff82169050919050565b60006116d4826116a9565b9050919050565b6116e4816116c9565b81146116ef57600080fd5b50565b600081359050611701816116db565b92915050565b60006020828403121561171d5761171c6116a4565b5b600061172b848285016116f2565b91505092915050565b6000819050919050565b61174781611734565b811461175257600080fd5b50565b6000813590506117648161173e565b92915050565b6000602082840312156117805761177f6116a4565b5b600061178e84828501611755565b91505092915050565b6117a081611734565b82525050565b60006020820190506117bb6000830184611797565b92915050565b60006040820190506117d66000830185611797565b6117e36020830184611797565b9392505050565b6000819050919050565b600061180f61180a611805846116a9565b6117ea565b6116a9565b9050919050565b6000611821826117f4565b9050919050565b600061183382611816565b9050919050565b61184381611828565b82525050565b600060208201905061185e600083018461183a565b92915050565b61186d816116c9565b82525050565b60006020820190506118886000830184611864565b92915050565b600080604083850312156118a5576118a46116a4565b5b60006118b3858286016116f2565b92505060206118c485828601611755565b9150509250929050565b60008115159050919050565b6118e3816118ce565b82525050565b60006020820190506118fe60008301846118da565b92915050565b600081519050919050565b600082825260208201905092915050565b6000819050602082019050919050565b61193981611734565b82525050565b600061194b8383611930565b60208301905092915050565b6000602082019050919050565b600061196f82611904565b611979818561190f565b935061198483611920565b8060005b838110156119b557815161199c888261193f565b97506119a783611957565b925050600181019050611988565b5085935050505092915050565b600060208201905081810360008301526119dc8184611964565b905092915050565b60006119ef82611816565b9050919050565b6119ff816119e4565b82525050565b6000602082019050611a1a60008301846119f6565b92915050565b7f4e487b7100000000000000000000000000000000000000000000000000000000600052603260045260246000fd5b7f4e487b7100000000000000000000000000000000000000000000000000000000600052601160045260246000fd5b6000611a8982611734565b9150611a9483611734565b9250828203905081811115611aac57611aab611a4f565b5b92915050565b6000611abd82611734565b9150611ac883611734565b9250828201905080821115611ae057611adf611a4f565b5b92915050565b6000611af182611734565b91507fffffffffffffffffffffffffffffffffffffffffffffffffffffffffffffffff8203611b2357611b22611a4f565b5b600182019050919050565b6000606082019050611b436000830186611864565b611b506020830185611864565b611b5d6040830184611797565b949350505050565b611b6e816118ce565b8114611b7957600080fd5b50565b600081519050611b8b81611b65565b92915050565b600060208284031215611ba757611ba66116a4565b5b6000611bb584828501611b7c565b91505092915050565b6000604082019050611bd36000830185611864565b611be06020830184611797565b9392505050565b7f4e487b7100000000000000000000000000000000000000000000000000000000600052604160045260246000fd5b6000611c2182611734565b9150611c2c83611734565b9250828202611c3a81611734565b91508282048414831517611c5157611c50611a4f565b5b5092915050565b7f4e487b7100000000000000000000000000000000000000000000000000000000600052601260045260246000fd5b6000611c9282611734565b9150611c9d83611734565b925082611cad57611cac611c58565b5b828204905092915050565b600082825260208201905092915050565b7f4f776e61626c653a206e6577206f776e657220697320746865207a65726f206160008201527f6464726573730000000000000000000000000000000000000000000000000000602082015250565b6000611d25602683611cb8565b9150611d3082611cc9565b604082019050919050565b60006020820190508181036000830152611d5481611d18565b9050919050565b600081519050919050565b60005b83811015611d84578082015181840152602081019050611d69565b60008484015250505050565b6000601f19601f8301169050919050565b6000611dac82611d5b565b611db68185611cb8565b9350611dc6818560208601611d66565b611dcf81611d90565b840191505092915050565b60006040820190508181036000830152611df48185611da1565b9050611e036020830184611864565b9392505050565b7f4f776e61626c653a2063616c6c6572206973206e6f7420746865206f776e6572600082015250565b6000611e40602083611cb8565b9150611e4b82611e0a565b602082019050919050565b60006020820190508181036000830152611e6f81611e33565b9050919050565b60006040820190508181036000830152611e908185611da1565b9050611e9f6020830184611797565b939250505056fea26469706673582212207a762370166cae91ed52ca5352d01a752f6beb419996fc306eeb03e88c47228064736f6c63430008110033",
  "devdoc": {
    "kind": "dev",
    "methods": {
      "owner()": {
        "details": "Returns the address of the current owner."
      },
      "renounceOwnership()": {
        "details": "Leaves the contract without owner. It will not be possible to call `onlyOwner` functions anymore. Can only be called by the current owner. NOTE: Renouncing ownership will leave the contract without an owner, thereby removing any functionality that is only available to the owner."
      },
      "setStakingTokenAddress(address)": {
        "details": "the inner mapping of owner=>balance resets everytime we change s_stakingTokenAddress on condition that tokenToOwnerToStake[s_stakingTokenAddress] is always used to access that owner=>balance mapping"
      },
      "transferOwnership(address)": {
        "details": "Transfers ownership of the contract to a new account (`newOwner`). Can only be called by the current owner."
      }
    },
    "version": 1
  },
  "userdoc": {
    "kind": "user",
    "methods": {},
    "version": 1
  },
  "storageLayout": {
    "storage": [
      {
        "astId": 7,
        "contract": "contracts/Staking.sol:Staking",
        "label": "_owner",
        "offset": 0,
        "slot": "0",
        "type": "t_address"
      },
      {
        "astId": 241,
        "contract": "contracts/Staking.sol:Staking",
        "label": "stakingToken",
        "offset": 0,
        "slot": "1",
        "type": "t_contract(IERC20)190"
      },
      {
        "astId": 244,
        "contract": "contracts/Staking.sol:Staking",
        "label": "rewardToken",
        "offset": 0,
        "slot": "2",
        "type": "t_contract(IRewardToken)947"
      },
      {
        "astId": 246,
        "contract": "contracts/Staking.sol:Staking",
        "label": "s_isFunded",
        "offset": 20,
        "slot": "2",
        "type": "t_bool"
      },
      {
        "astId": 248,
        "contract": "contracts/Staking.sol:Staking",
        "label": "s_rewardRate",
        "offset": 0,
        "slot": "3",
        "type": "t_uint256"
      },
      {
        "astId": 254,
        "contract": "contracts/Staking.sol:Staking",
        "label": "s_OwnerToStake",
        "offset": 0,
        "slot": "4",
        "type": "t_mapping(t_address,t_array(t_struct(Stake)238_storage)dyn_storage)"
      },
      {
        "astId": 258,
        "contract": "contracts/Staking.sol:Staking",
        "label": "s_TotalStakes",
        "offset": 0,
        "slot": "5",
        "type": "t_array(t_struct(Stake)238_storage)dyn_storage"
      },
      {
        "astId": 260,
        "contract": "contracts/Staking.sol:Staking",
        "label": "s_totalStaked",
        "offset": 0,
        "slot": "6",
        "type": "t_uint256"
      }
    ],
    "types": {
      "t_address": {
        "encoding": "inplace",
        "label": "address",
        "numberOfBytes": "20"
      },
      "t_array(t_struct(Stake)238_storage)dyn_storage": {
        "base": "t_struct(Stake)238_storage",
        "encoding": "dynamic_array",
        "label": "struct Staking.Stake[]",
        "numberOfBytes": "32"
      },
      "t_bool": {
        "encoding": "inplace",
        "label": "bool",
        "numberOfBytes": "1"
      },
      "t_contract(IERC20)190": {
        "encoding": "inplace",
        "label": "contract IERC20",
        "numberOfBytes": "20"
      },
      "t_contract(IRewardToken)947": {
        "encoding": "inplace",
        "label": "contract IRewardToken",
        "numberOfBytes": "20"
      },
      "t_mapping(t_address,t_array(t_struct(Stake)238_storage)dyn_storage)": {
        "encoding": "mapping",
        "key": "t_address",
        "label": "mapping(address => struct Staking.Stake[])",
        "numberOfBytes": "32",
        "value": "t_array(t_struct(Stake)238_storage)dyn_storage"
      },
      "t_struct(Stake)238_storage": {
        "encoding": "inplace",
        "label": "struct Staking.Stake",
        "members": [
          {
            "astId": 235,
            "contract": "contracts/Staking.sol:Staking",
            "label": "amount",
            "offset": 0,
            "slot": "0",
            "type": "t_uint256"
          },
          {
            "astId": 237,
            "contract": "contracts/Staking.sol:Staking",
            "label": "timestamp",
            "offset": 0,
            "slot": "1",
            "type": "t_uint256"
          }
        ],
        "numberOfBytes": "64"
      },
      "t_uint256": {
        "encoding": "inplace",
        "label": "uint256",
        "numberOfBytes": "32"
      }
    }
  }
}