{
  "address": "0x9fE46736679d2D9a65F0992F2272dE9f3c7fa6e0",
  "abi": [
    {
      "inputs": [
        {
          "internalType": "uint256",
          "name": "_rewardRate",
          "type": "uint256"
        }
      ],
      "stateMutability": "nonpayable",
      "type": "constructor"
    },
    {
      "inputs": [],
      "name": "Staking_AlreadyFunded",
      "type": "error"
    },
    {
      "inputs": [],
      "name": "Staking_NotAlreadyFunded",
      "type": "error"
    },
    {
      "anonymous": false,
      "inputs": [
        {
          "indexed": true,
          "internalType": "address",
          "name": "previousOwner",
          "type": "address"
        },
        {
          "indexed": true,
          "internalType": "address",
          "name": "newOwner",
          "type": "address"
        }
      ],
      "name": "OwnershipTransferred",
      "type": "event"
    },
    {
      "anonymous": false,
      "inputs": [
        {
          "indexed": true,
          "internalType": "address",
          "name": "sender",
          "type": "address"
        },
        {
          "indexed": true,
          "internalType": "address",
          "name": "token",
          "type": "address"
        },
        {
          "indexed": false,
          "internalType": "uint256",
          "name": "amount",
          "type": "uint256"
        }
      ],
      "name": "Staked",
      "type": "event"
    },
    {
      "inputs": [],
      "name": "claimRewards",
      "outputs": [],
      "stateMutability": "nonpayable",
      "type": "function"
    },
    {
      "inputs": [
        {
          "internalType": "uint256",
          "name": "amount",
          "type": "uint256"
        }
      ],
      "name": "initialFund",
      "outputs": [],
      "stateMutability": "nonpayable",
      "type": "function"
    },
    {
      "inputs": [],
      "name": "owner",
      "outputs": [
        {
          "internalType": "address",
          "name": "",
          "type": "address"
        }
      ],
      "stateMutability": "view",
      "type": "function"
    },
    {
      "inputs": [],
      "name": "renounceOwnership",
      "outputs": [],
      "stateMutability": "nonpayable",
      "type": "function"
    },
    {
      "inputs": [],
      "name": "rewardToken",
      "outputs": [
        {
          "internalType": "contract IRewardToken",
          "name": "",
          "type": "address"
        }
      ],
      "stateMutability": "view",
      "type": "function"
    },
    {
      "inputs": [
        {
          "internalType": "address",
          "name": "",
          "type": "address"
        },
        {
          "internalType": "uint256",
          "name": "",
          "type": "uint256"
        }
      ],
      "name": "s_OwnerToStake",
      "outputs": [
        {
          "internalType": "uint256",
          "name": "amount",
          "type": "uint256"
        },
        {
          "internalType": "uint256",
          "name": "timestamp",
          "type": "uint256"
        }
      ],
      "stateMutability": "view",
      "type": "function"
    },
    {
      "inputs": [
        {
          "internalType": "uint256",
          "name": "",
          "type": "uint256"
        }
      ],
      "name": "s_TotalStakes",
      "outputs": [
        {
          "internalType": "uint256",
          "name": "amount",
          "type": "uint256"
        },
        {
          "internalType": "uint256",
          "name": "timestamp",
          "type": "uint256"
        }
      ],
      "stateMutability": "view",
      "type": "function"
    },
    {
      "inputs": [],
      "name": "s_isFunded",
      "outputs": [
        {
          "internalType": "bool",
          "name": "",
          "type": "bool"
        }
      ],
      "stateMutability": "view",
      "type": "function"
    },
    {
      "inputs": [],
      "name": "s_rewardRate",
      "outputs": [
        {
          "internalType": "uint256",
          "name": "",
          "type": "uint256"
        }
      ],
      "stateMutability": "view",
      "type": "function"
    },
    {
      "inputs": [],
      "name": "s_totalStaked",
      "outputs": [
        {
          "internalType": "uint256",
          "name": "",
          "type": "uint256"
        }
      ],
      "stateMutability": "view",
      "type": "function"
    },
    {
      "inputs": [
        {
          "internalType": "uint256",
          "name": "_rewardRate",
          "type": "uint256"
        }
      ],
      "name": "setRewardRate",
      "outputs": [],
      "stateMutability": "nonpayable",
      "type": "function"
    },
    {
      "inputs": [
        {
          "internalType": "address",
          "name": "token",
          "type": "address"
        }
      ],
      "name": "setRewardToken",
      "outputs": [],
      "stateMutability": "nonpayable",
      "type": "function"
    },
    {
      "inputs": [
        {
          "internalType": "address",
          "name": "token",
          "type": "address"
        }
      ],
      "name": "setStakingToken",
      "outputs": [],
      "stateMutability": "nonpayable",
      "type": "function"
    },
    {
      "inputs": [
        {
          "internalType": "address",
          "name": "token",
          "type": "address"
        }
      ],
      "name": "setStakingTokenAddress",
      "outputs": [],
      "stateMutability": "nonpayable",
      "type": "function"
    },
    {
      "inputs": [
        {
          "internalType": "uint256",
          "name": "amount",
          "type": "uint256"
        }
      ],
      "name": "stake",
      "outputs": [],
      "stateMutability": "nonpayable",
      "type": "function"
    },
    {
      "inputs": [
        {
          "internalType": "address",
          "name": "staker",
          "type": "address"
        }
      ],
      "name": "stakerRewards",
      "outputs": [
        {
          "internalType": "uint256[]",
          "name": "",
          "type": "uint256[]"
        }
      ],
      "stateMutability": "view",
      "type": "function"
    },
    {
      "inputs": [],
      "name": "stakingToken",
      "outputs": [
        {
          "internalType": "contract IERC20",
          "name": "",
          "type": "address"
        }
      ],
      "stateMutability": "view",
      "type": "function"
    },
    {
      "inputs": [
        {
          "internalType": "address",
          "name": "newOwner",
          "type": "address"
        }
      ],
      "name": "transferOwnership",
      "outputs": [],
      "stateMutability": "nonpayable",
      "type": "function"
    },
    {
      "inputs": [],
      "name": "withdraw",
      "outputs": [],
      "stateMutability": "nonpayable",
      "type": "function"
    }
  ],
  "transactionHash": "0x6b113a69815cb0d9133e60ac07e26ffbb3eafcba695b94962f50db1a8519e7b1",
  "args": [
    10000000000
  ],
  "numDeployments": 1,
  "solcInputHash": "01da1dbbe3b503b5a37c5a29081a540d",
  "bytecode": "0x60806040523480156200001157600080fd5b5060405162001bbd38038062001bbd833981810160405281019062000037919062000171565b620000576200004b6200006560201b60201c565b6200006d60201b60201c565b8060038190555050620001a3565b600033905090565b60008060009054906101000a900473ffffffffffffffffffffffffffffffffffffffff169050816000806101000a81548173ffffffffffffffffffffffffffffffffffffffff021916908373ffffffffffffffffffffffffffffffffffffffff1602179055508173ffffffffffffffffffffffffffffffffffffffff168173ffffffffffffffffffffffffffffffffffffffff167f8be0079c531659141344cd1fd0a4f28419497f9722a3daafe3b4186f6b6457e060405160405180910390a35050565b600080fd5b6000819050919050565b6200014b8162000136565b81146200015757600080fd5b50565b6000815190506200016b8162000140565b92915050565b6000602082840312156200018a576200018962000131565b5b60006200019a848285016200015a565b91505092915050565b611a0a80620001b36000396000f3fe608060405234801561001057600080fd5b50600436106101215760003560e01c80638da5cb5b116100ad578063ef772a6011610071578063ef772a60146102a8578063f0d38070146102c6578063f0f0b228146102e4578063f2fde38b14610314578063f7c618c11461033057610121565b80638da5cb5b1461020557806398378485146102235780639e447fc61461023f578063a694fc3a1461025b578063b5e011411461027757610121565b80633ccfd60b116100f45780633ccfd60b1461019b5780634731586f146101a5578063715018a6146101c157806372f702f3146101cb5780638aee8127146101e957610121565b80631e9b12ef146101265780633179317d14610142578063372500ab146101605780633c5c53bd1461016a575b600080fd5b610140600480360381019061013b9190611265565b61034e565b005b61014a61039a565b60405161015791906112ab565b60405180910390f35b6101686103a0565b005b610184600480360381019061017f91906112f2565b6104fa565b60405161019292919061131f565b60405180910390f35b6101a361052e565b005b6101bf60048036038101906101ba91906112f2565b610530565b005b6101c961065f565b005b6101d3610673565b6040516101e091906113a7565b60405180910390f35b61020360048036038101906101fe9190611265565b610699565b005b61020d6106e5565b60405161021a91906113d1565b60405180910390f35b61023d60048036038101906102389190611265565b61070e565b005b610259600480360381019061025491906112f2565b610775565b005b610275600480360381019061027091906112f2565b610787565b005b610291600480360381019061028c91906113ec565b6109b6565b60405161029f92919061131f565b60405180910390f35b6102b06109f7565b6040516102bd91906112ab565b60405180910390f35b6102ce6109fd565b6040516102db9190611447565b60405180910390f35b6102fe60048036038101906102f99190611265565b610a10565b60405161030b9190611520565b60405180910390f35b61032e60048036038101906103299190611265565b610d41565b005b610338610dc4565b6040516103459190611563565b60405180910390f35b610356610dea565b80600160006101000a81548173ffffffffffffffffffffffffffffffffffffffff021916908373ffffffffffffffffffffffffffffffffffffffff16021790555050565b60035481565b60006103ab33610a10565b9050600081519050600080600090505b82811015610465578381815181106103d6576103d561157e565b5b6020026020010151826103e991906115dc565b915042600460003373ffffffffffffffffffffffffffffffffffffffff1673ffffffffffffffffffffffffffffffffffffffff168152602001908152602001600020828154811061043d5761043c61157e565b5b906000526020600020906002020160010181905550808061045d90611610565b9150506103bb565b50600260009054906101000a900473ffffffffffffffffffffffffffffffffffffffff1673ffffffffffffffffffffffffffffffffffffffff166340c10f1933836040518363ffffffff1660e01b81526004016104c3929190611658565b600060405180830381600087803b1580156104dd57600080fd5b505af11580156104f1573d6000803e3d6000fd5b50505050505050565b6005818154811061050a57600080fd5b90600052602060002090600202016000915090508060000154908060010154905082565b565b610538610dea565b60011515600260149054906101000a900460ff16151503610585576040517fbf0aab3b00000000000000000000000000000000000000000000000000000000815260040160405180910390fd5b6001600260146101000a81548160ff02191690831515021790555080600660008282546105b291906115dc565b92505081905550600160009054906101000a900473ffffffffffffffffffffffffffffffffffffffff1673ffffffffffffffffffffffffffffffffffffffff166323b872dd3330846040518463ffffffff1660e01b815260040161061893929190611681565b6020604051808303816000875af1158015610637573d6000803e3d6000fd5b505050506040513d601f19601f8201168201806040525081019061065b91906116e4565b5050565b610667610dea565b6106716000610e68565b565b600160009054906101000a900473ffffffffffffffffffffffffffffffffffffffff1681565b6106a1610dea565b80600260006101000a81548173ffffffffffffffffffffffffffffffffffffffff021916908373ffffffffffffffffffffffffffffffffffffffff16021790555050565b60008060009054906101000a900473ffffffffffffffffffffffffffffffffffffffff16905090565b610716610dea565b80600160006101000a81548173ffffffffffffffffffffffffffffffffffffffff021916908373ffffffffffffffffffffffffffffffffffffffff1602179055506000600260146101000a81548160ff02191690831515021790555050565b61077d610dea565b8060038190555050565b60001515600260149054906101000a900460ff161515036107d4576040517fb1d66a3e00000000000000000000000000000000000000000000000000000000815260040160405180910390fd5b6107dd81610f2c565b600160009054906101000a900473ffffffffffffffffffffffffffffffffffffffff1673ffffffffffffffffffffffffffffffffffffffff166323b872dd3330846040518463ffffffff1660e01b815260040161083c93929190611681565b6020604051808303816000875af115801561085b573d6000803e3d6000fd5b505050506040513d601f19601f8201168201806040525081019061087f91906116e4565b50806006600082825461089291906115dc565b92505081905550600460003373ffffffffffffffffffffffffffffffffffffffff1673ffffffffffffffffffffffffffffffffffffffff168152602001908152602001600020604051806040016040528083815260200142815250908060018154018082558091505060019003906000526020600020906002020160009091909190915060008201518160000155602082015181600101555050600160009054906101000a900473ffffffffffffffffffffffffffffffffffffffff1673ffffffffffffffffffffffffffffffffffffffff163373ffffffffffffffffffffffffffffffffffffffff167f5dac0c1b1112564a045ba943c9d50270893e8e826c49be8e7073adc713ab7bd7836040516109ab91906112ab565b60405180910390a350565b600460205281600052604060002081815481106109d257600080fd5b9060005260206000209060020201600091509150508060000154908060010154905082565b60065481565b600260149054906101000a900460ff1681565b60606000600460008473ffffffffffffffffffffffffffffffffffffffff1673ffffffffffffffffffffffffffffffffffffffff168152602001908152602001600020805480602002602001604051908101604052809291908181526020016000905b82821015610ab957838290600052602060002090600202016040518060400160405290816000820154815260200160018201548152505081526020019060010190610a73565b50505050905060008151905060008167ffffffffffffffff811115610ae157610ae0611711565b5b604051908082528060200260200182016040528015610b0f5781602001602082028036833780820191505090505b509050600080600090505b83811015610d34576000858281518110610b3757610b3661157e565b5b60200260200101516000015190506000868381518110610b5a57610b5961157e565b5b60200260200101516020015190506000600580549050905060005b81811015610cfd57600188610b8a9190611740565b85108015610bbd57508260058281548110610ba857610ba761157e565b5b90600052602060002090600202016001015410155b8015610c17575088600186610bd291906115dc565b81518110610be357610be261157e565b5b60200260200101516020015160058281548110610c0357610c0261157e565b5b906000526020600020906002020160010154105b80610c5e5750600188610c2a9190611740565b85148015610c5d57508260058281548110610c4857610c4761157e565b5b90600052602060002090600202016001015410155b5b15610cea5760058181548110610c7757610c7661157e565b5b9060005260206000209060020201600001548360058381548110610c9e57610c9d61157e565b5b906000526020600020906002020160010154610cba9190611740565b85600354610cc89190611774565b610cd29190611774565b610cdc91906117e5565b86610ce791906115dc565b95505b8080610cf590611610565b915050610b75565b5084868581518110610d1257610d1161157e565b5b6020026020010181815250505050508080610d2c90611610565b915050610b1a565b5081945050505050919050565b610d49610dea565b600073ffffffffffffffffffffffffffffffffffffffff168173ffffffffffffffffffffffffffffffffffffffff1603610db8576040517f08c379a0000000000000000000000000000000000000000000000000000000008152600401610daf90611899565b60405180910390fd5b610dc181610e68565b50565b600260009054906101000a900473ffffffffffffffffffffffffffffffffffffffff1681565b610df2611135565b73ffffffffffffffffffffffffffffffffffffffff16610e106106e5565b73ffffffffffffffffffffffffffffffffffffffff1614610e66576040517f08c379a0000000000000000000000000000000000000000000000000000000008152600401610e5d90611905565b60405180910390fd5b565b60008060009054906101000a900473ffffffffffffffffffffffffffffffffffffffff169050816000806101000a81548173ffffffffffffffffffffffffffffffffffffffff021916908373ffffffffffffffffffffffffffffffffffffffff1602179055508173ffffffffffffffffffffffffffffffffffffffff168173ffffffffffffffffffffffffffffffffffffffff167f8be0079c531659141344cd1fd0a4f28419497f9722a3daafe3b4186f6b6457e060405160405180910390a35050565b600060058054905090506000429050610f7a6040518060400160405280600981526020017f626c6f636b7420257300000000000000000000000000000000000000000000008152508261113d565b60008203610fdd576005604051806040016040528085815260200142815250908060018154018082558091505060019003906000526020600020906002020160009091909190915060008201518160000155602082015181600101555050611130565b426005600184610fed9190611740565b81548110610ffe57610ffd61157e565b5b90600052602060002090600202016001015410156110ad57600560405180604001604052808560056001876110339190611740565b815481106110445761104361157e565b5b90600052602060002090600202016000015461106091906115dc565b81526020014281525090806001815401808255809150506001900390600052602060002090600202016000909190919091506000820151816000015560208201518160010155505061112f565b4260056001846110bd9190611740565b815481106110ce576110cd61157e565b5b9060005260206000209060020201600101540361112e578260056001846110f59190611740565b815481106111065761110561157e565b5b9060005260206000209060020201600001600082825461112691906115dc565b925050819055505b5b5b505050565b600033905090565b6111d582826040516024016111539291906119a4565b6040516020818303038152906040527fb60e72cc000000000000000000000000000000000000000000000000000000007bffffffffffffffffffffffffffffffffffffffffffffffffffffffff19166020820180517bffffffffffffffffffffffffffffffffffffffffffffffffffffffff83818316178352505050506111d9565b5050565b60008151905060006a636f6e736f6c652e6c6f679050602083016000808483855afa5050505050565b600080fd5b600073ffffffffffffffffffffffffffffffffffffffff82169050919050565b600061123282611207565b9050919050565b61124281611227565b811461124d57600080fd5b50565b60008135905061125f81611239565b92915050565b60006020828403121561127b5761127a611202565b5b600061128984828501611250565b91505092915050565b6000819050919050565b6112a581611292565b82525050565b60006020820190506112c0600083018461129c565b92915050565b6112cf81611292565b81146112da57600080fd5b50565b6000813590506112ec816112c6565b92915050565b60006020828403121561130857611307611202565b5b6000611316848285016112dd565b91505092915050565b6000604082019050611334600083018561129c565b611341602083018461129c565b9392505050565b6000819050919050565b600061136d61136861136384611207565b611348565b611207565b9050919050565b600061137f82611352565b9050919050565b600061139182611374565b9050919050565b6113a181611386565b82525050565b60006020820190506113bc6000830184611398565b92915050565b6113cb81611227565b82525050565b60006020820190506113e660008301846113c2565b92915050565b6000806040838503121561140357611402611202565b5b600061141185828601611250565b9250506020611422858286016112dd565b9150509250929050565b60008115159050919050565b6114418161142c565b82525050565b600060208201905061145c6000830184611438565b92915050565b600081519050919050565b600082825260208201905092915050565b6000819050602082019050919050565b61149781611292565b82525050565b60006114a9838361148e565b60208301905092915050565b6000602082019050919050565b60006114cd82611462565b6114d7818561146d565b93506114e28361147e565b8060005b838110156115135781516114fa888261149d565b9750611505836114b5565b9250506001810190506114e6565b5085935050505092915050565b6000602082019050818103600083015261153a81846114c2565b905092915050565b600061154d82611374565b9050919050565b61155d81611542565b82525050565b60006020820190506115786000830184611554565b92915050565b7f4e487b7100000000000000000000000000000000000000000000000000000000600052603260045260246000fd5b7f4e487b7100000000000000000000000000000000000000000000000000000000600052601160045260246000fd5b60006115e782611292565b91506115f283611292565b925082820190508082111561160a576116096115ad565b5b92915050565b600061161b82611292565b91507fffffffffffffffffffffffffffffffffffffffffffffffffffffffffffffffff820361164d5761164c6115ad565b5b600182019050919050565b600060408201905061166d60008301856113c2565b61167a602083018461129c565b9392505050565b600060608201905061169660008301866113c2565b6116a360208301856113c2565b6116b0604083018461129c565b949350505050565b6116c18161142c565b81146116cc57600080fd5b50565b6000815190506116de816116b8565b92915050565b6000602082840312156116fa576116f9611202565b5b6000611708848285016116cf565b91505092915050565b7f4e487b7100000000000000000000000000000000000000000000000000000000600052604160045260246000fd5b600061174b82611292565b915061175683611292565b925082820390508181111561176e5761176d6115ad565b5b92915050565b600061177f82611292565b915061178a83611292565b925082820261179881611292565b915082820484148315176117af576117ae6115ad565b5b5092915050565b7f4e487b7100000000000000000000000000000000000000000000000000000000600052601260045260246000fd5b60006117f082611292565b91506117fb83611292565b92508261180b5761180a6117b6565b5b828204905092915050565b600082825260208201905092915050565b7f4f776e61626c653a206e6577206f776e657220697320746865207a65726f206160008201527f6464726573730000000000000000000000000000000000000000000000000000602082015250565b6000611883602683611816565b915061188e82611827565b604082019050919050565b600060208201905081810360008301526118b281611876565b9050919050565b7f4f776e61626c653a2063616c6c6572206973206e6f7420746865206f776e6572600082015250565b60006118ef602083611816565b91506118fa826118b9565b602082019050919050565b6000602082019050818103600083015261191e816118e2565b9050919050565b600081519050919050565b60005b8381101561194e578082015181840152602081019050611933565b60008484015250505050565b6000601f19601f8301169050919050565b600061197682611925565b6119808185611816565b9350611990818560208601611930565b6119998161195a565b840191505092915050565b600060408201905081810360008301526119be818561196b565b90506119cd602083018461129c565b939250505056fea2646970667358221220e1df50cb90de469f725bb16697471fad72bf311e04099c64c7f0a3a5a0313da564736f6c63430008110033",
  "devdoc": {
    "kind": "dev",
    "methods": {
      "owner()": {
        "details": "Returns the address of the current owner."
      },
      "renounceOwnership()": {
        "details": "Leaves the contract without owner. It will not be possible to call `onlyOwner` functions anymore. Can only be called by the current owner. NOTE: Renouncing ownership will leave the contract without an owner, thereby removing any functionality that is only available to the owner."
      },
      "setStakingTokenAddress(address)": {
        "details": "the inner mapping of owner=>balance resets everytime we change s_stakingTokenAddress on condition that tokenToOwnerToStake[s_stakingTokenAddress] is always used to access that owner=>balance mapping"
      },
      "transferOwnership(address)": {
        "details": "Transfers ownership of the contract to a new account (`newOwner`). Can only be called by the current owner."
      }
    },
    "version": 1
  },
  "userdoc": {
    "kind": "user",
    "methods": {},
    "version": 1
  },
  "storageLayout": {
    "storage": [
      {
        "astId": 7,
        "contract": "contracts/Staking.sol:Staking",
        "label": "_owner",
        "offset": 0,
        "slot": "0",
        "type": "t_address"
      },
      {
        "astId": 241,
        "contract": "contracts/Staking.sol:Staking",
        "label": "stakingToken",
        "offset": 0,
        "slot": "1",
        "type": "t_contract(IERC20)190"
      },
      {
        "astId": 244,
        "contract": "contracts/Staking.sol:Staking",
        "label": "rewardToken",
        "offset": 0,
        "slot": "2",
        "type": "t_contract(IRewardToken)813"
      },
      {
        "astId": 246,
        "contract": "contracts/Staking.sol:Staking",
        "label": "s_isFunded",
        "offset": 20,
        "slot": "2",
        "type": "t_bool"
      },
      {
        "astId": 248,
        "contract": "contracts/Staking.sol:Staking",
        "label": "s_rewardRate",
        "offset": 0,
        "slot": "3",
        "type": "t_uint256"
      },
      {
        "astId": 254,
        "contract": "contracts/Staking.sol:Staking",
        "label": "s_OwnerToStake",
        "offset": 0,
        "slot": "4",
        "type": "t_mapping(t_address,t_array(t_struct(Stake)238_storage)dyn_storage)"
      },
      {
        "astId": 258,
        "contract": "contracts/Staking.sol:Staking",
        "label": "s_TotalStakes",
        "offset": 0,
        "slot": "5",
        "type": "t_array(t_struct(Stake)238_storage)dyn_storage"
      },
      {
        "astId": 260,
        "contract": "contracts/Staking.sol:Staking",
        "label": "s_totalStaked",
        "offset": 0,
        "slot": "6",
        "type": "t_uint256"
      }
    ],
    "types": {
      "t_address": {
        "encoding": "inplace",
        "label": "address",
        "numberOfBytes": "20"
      },
      "t_array(t_struct(Stake)238_storage)dyn_storage": {
        "base": "t_struct(Stake)238_storage",
        "encoding": "dynamic_array",
        "label": "struct Staking.Stake[]",
        "numberOfBytes": "32"
      },
      "t_bool": {
        "encoding": "inplace",
        "label": "bool",
        "numberOfBytes": "1"
      },
      "t_contract(IERC20)190": {
        "encoding": "inplace",
        "label": "contract IERC20",
        "numberOfBytes": "20"
      },
      "t_contract(IRewardToken)813": {
        "encoding": "inplace",
        "label": "contract IRewardToken",
        "numberOfBytes": "20"
      },
      "t_mapping(t_address,t_array(t_struct(Stake)238_storage)dyn_storage)": {
        "encoding": "mapping",
        "key": "t_address",
        "label": "mapping(address => struct Staking.Stake[])",
        "numberOfBytes": "32",
        "value": "t_array(t_struct(Stake)238_storage)dyn_storage"
      },
      "t_struct(Stake)238_storage": {
        "encoding": "inplace",
        "label": "struct Staking.Stake",
        "members": [
          {
            "astId": 235,
            "contract": "contracts/Staking.sol:Staking",
            "label": "amount",
            "offset": 0,
            "slot": "0",
            "type": "t_uint256"
          },
          {
            "astId": 237,
            "contract": "contracts/Staking.sol:Staking",
            "label": "timestamp",
            "offset": 0,
            "slot": "1",
            "type": "t_uint256"
          }
        ],
        "numberOfBytes": "64"
      },
      "t_uint256": {
        "encoding": "inplace",
        "label": "uint256",
        "numberOfBytes": "32"
      }
    }
  }
}