{
  "address": "0x5FbDB2315678afecb367f032d93F642f64180aa3",
  "abi": [
    {
      "inputs": [
        {
          "internalType": "uint256",
          "name": "amountToMint",
          "type": "uint256"
        }
      ],
      "stateMutability": "nonpayable",
      "type": "constructor"
    },
    {
      "anonymous": false,
      "inputs": [
        {
          "indexed": true,
          "internalType": "address",
          "name": "owner",
          "type": "address"
        },
        {
          "indexed": true,
          "internalType": "address",
          "name": "spender",
          "type": "address"
        },
        {
          "indexed": false,
          "internalType": "uint256",
          "name": "value",
          "type": "uint256"
        }
      ],
      "name": "Approval",
      "type": "event"
    },
    {
      "anonymous": false,
      "inputs": [
        {
          "indexed": true,
          "internalType": "address",
          "name": "from",
          "type": "address"
        },
        {
          "indexed": true,
          "internalType": "address",
          "name": "to",
          "type": "address"
        },
        {
          "indexed": false,
          "internalType": "uint256",
          "name": "value",
          "type": "uint256"
        }
      ],
      "name": "Transfer",
      "type": "event"
    },
    {
      "inputs": [
        {
          "internalType": "address",
          "name": "owner",
          "type": "address"
        },
        {
          "internalType": "address",
          "name": "spender",
          "type": "address"
        }
      ],
      "name": "allowance",
      "outputs": [
        {
          "internalType": "uint256",
          "name": "",
          "type": "uint256"
        }
      ],
      "stateMutability": "view",
      "type": "function"
    },
    {
      "inputs": [
        {
          "internalType": "address",
          "name": "spender",
          "type": "address"
        },
        {
          "internalType": "uint256",
          "name": "amount",
          "type": "uint256"
        }
      ],
      "name": "approve",
      "outputs": [
        {
          "internalType": "bool",
          "name": "",
          "type": "bool"
        }
      ],
      "stateMutability": "nonpayable",
      "type": "function"
    },
    {
      "inputs": [
        {
          "internalType": "address",
          "name": "account",
          "type": "address"
        }
      ],
      "name": "balanceOf",
      "outputs": [
        {
          "internalType": "uint256",
          "name": "",
          "type": "uint256"
        }
      ],
      "stateMutability": "view",
      "type": "function"
    },
    {
      "inputs": [],
      "name": "decimals",
      "outputs": [
        {
          "internalType": "uint8",
          "name": "",
          "type": "uint8"
        }
      ],
      "stateMutability": "view",
      "type": "function"
    },
    {
      "inputs": [
        {
          "internalType": "address",
          "name": "spender",
          "type": "address"
        },
        {
          "internalType": "uint256",
          "name": "subtractedValue",
          "type": "uint256"
        }
      ],
      "name": "decreaseAllowance",
      "outputs": [
        {
          "internalType": "bool",
          "name": "",
          "type": "bool"
        }
      ],
      "stateMutability": "nonpayable",
      "type": "function"
    },
    {
      "inputs": [
        {
          "internalType": "address",
          "name": "spender",
          "type": "address"
        },
        {
          "internalType": "uint256",
          "name": "addedValue",
          "type": "uint256"
        }
      ],
      "name": "increaseAllowance",
      "outputs": [
        {
          "internalType": "bool",
          "name": "",
          "type": "bool"
        }
      ],
      "stateMutability": "nonpayable",
      "type": "function"
    },
    {
      "inputs": [],
      "name": "mint",
      "outputs": [],
      "stateMutability": "payable",
      "type": "function"
    },
    {
      "inputs": [],
      "name": "name",
      "outputs": [
        {
          "internalType": "string",
          "name": "",
          "type": "string"
        }
      ],
      "stateMutability": "view",
      "type": "function"
    },
    {
      "inputs": [],
      "name": "s_valuePerEth",
      "outputs": [
        {
          "internalType": "uint256",
          "name": "",
          "type": "uint256"
        }
      ],
      "stateMutability": "view",
      "type": "function"
    },
    {
      "inputs": [],
      "name": "symbol",
      "outputs": [
        {
          "internalType": "string",
          "name": "",
          "type": "string"
        }
      ],
      "stateMutability": "view",
      "type": "function"
    },
    {
      "inputs": [],
      "name": "totalSupply",
      "outputs": [
        {
          "internalType": "uint256",
          "name": "",
          "type": "uint256"
        }
      ],
      "stateMutability": "view",
      "type": "function"
    },
    {
      "inputs": [
        {
          "internalType": "address",
          "name": "to",
          "type": "address"
        },
        {
          "internalType": "uint256",
          "name": "amount",
          "type": "uint256"
        }
      ],
      "name": "transfer",
      "outputs": [
        {
          "internalType": "bool",
          "name": "",
          "type": "bool"
        }
      ],
      "stateMutability": "nonpayable",
      "type": "function"
    },
    {
      "inputs": [
        {
          "internalType": "address",
          "name": "from",
          "type": "address"
        },
        {
          "internalType": "address",
          "name": "to",
          "type": "address"
        },
        {
          "internalType": "uint256",
          "name": "amount",
          "type": "uint256"
        }
      ],
      "name": "transferFrom",
      "outputs": [
        {
          "internalType": "bool",
          "name": "",
          "type": "bool"
        }
      ],
      "stateMutability": "nonpayable",
      "type": "function"
    }
  ],
  "transactionHash": "0xf267b483d5aace3ad7fc42f577b5e725dc9bbd86cdf9f470319d2291fb61e0db",
  "args": [
    21000000
  ],
  "numDeployments": 1,
  "solcInputHash": "51aae4137775ab7ee07bd178699e9da4",
  "bytecode": "0x608060405260646005553480156200001657600080fd5b5060405162001f7d38038062001f7d83398181016040528101906200003c9190620002be565b6040518060400160405280600b81526020017f5374616b6564546f6b656e0000000000000000000000000000000000000000008152506040518060400160405280600381526020017f53544b00000000000000000000000000000000000000000000000000000000008152508160039081620000b9919062000560565b508060049081620000cb919062000560565b505050620000f533670de0b6b3a764000083620000e9919062000676565b620000fc60201b60201c565b50620007ad565b600073ffffffffffffffffffffffffffffffffffffffff168273ffffffffffffffffffffffffffffffffffffffff16036200016e576040517f08c379a0000000000000000000000000000000000000000000000000000000008152600401620001659062000722565b60405180910390fd5b62000182600083836200027460201b60201c565b806002600082825462000196919062000744565b92505081905550806000808473ffffffffffffffffffffffffffffffffffffffff1673ffffffffffffffffffffffffffffffffffffffff1681526020019081526020016000206000828254620001ed919062000744565b925050819055508173ffffffffffffffffffffffffffffffffffffffff16600073ffffffffffffffffffffffffffffffffffffffff167fddf252ad1be2c89b69c2b068fc378daa952ba7f163c4a11628f55a4df523b3ef8360405162000254919062000790565b60405180910390a362000270600083836200027960201b60201c565b5050565b505050565b505050565b600080fd5b6000819050919050565b620002988162000283565b8114620002a457600080fd5b50565b600081519050620002b8816200028d565b92915050565b600060208284031215620002d757620002d66200027e565b5b6000620002e784828501620002a7565b91505092915050565b600081519050919050565b7f4e487b7100000000000000000000000000000000000000000000000000000000600052604160045260246000fd5b7f4e487b7100000000000000000000000000000000000000000000000000000000600052602260045260246000fd5b600060028204905060018216806200037257607f821691505b6020821081036200038857620003876200032a565b5b50919050565b60008190508160005260206000209050919050565b60006020601f8301049050919050565b600082821b905092915050565b600060088302620003f27fffffffffffffffffffffffffffffffffffffffffffffffffffffffffffffffff82620003b3565b620003fe8683620003b3565b95508019841693508086168417925050509392505050565b6000819050919050565b6000620004416200043b620004358462000283565b62000416565b62000283565b9050919050565b6000819050919050565b6200045d8362000420565b620004756200046c8262000448565b848454620003c0565b825550505050565b600090565b6200048c6200047d565b6200049981848462000452565b505050565b5b81811015620004c157620004b560008262000482565b6001810190506200049f565b5050565b601f8211156200051057620004da816200038e565b620004e584620003a3565b81016020851015620004f5578190505b6200050d6200050485620003a3565b8301826200049e565b50505b505050565b600082821c905092915050565b6000620005356000198460080262000515565b1980831691505092915050565b600062000550838362000522565b9150826002028217905092915050565b6200056b82620002f0565b67ffffffffffffffff811115620005875762000586620002fb565b5b62000593825462000359565b620005a0828285620004c5565b600060209050601f831160018114620005d85760008415620005c3578287015190505b620005cf858262000542565b8655506200063f565b601f198416620005e8866200038e565b60005b828110156200061257848901518255600182019150602085019450602081019050620005eb565b868310156200063257848901516200062e601f89168262000522565b8355505b6001600288020188555050505b505050505050565b7f4e487b7100000000000000000000000000000000000000000000000000000000600052601160045260246000fd5b6000620006838262000283565b9150620006908362000283565b9250828202620006a08162000283565b91508282048414831517620006ba57620006b962000647565b5b5092915050565b600082825260208201905092915050565b7f45524332303a206d696e7420746f20746865207a65726f206164647265737300600082015250565b60006200070a601f83620006c1565b91506200071782620006d2565b602082019050919050565b600060208201905081810360008301526200073d81620006fb565b9050919050565b6000620007518262000283565b91506200075e8362000283565b925082820190508082111562000779576200077862000647565b5b92915050565b6200078a8162000283565b82525050565b6000602082019050620007a760008301846200077f565b92915050565b6117c080620007bd6000396000f3fe6080604052600436106100c25760003560e01c8063395093511161007f578063a457c2d711610059578063a457c2d714610271578063a9059cbb146102ae578063da67ab3c146102eb578063dd62ed3e14610316576100c2565b806339509351146101cc57806370a082311461020957806395d89b4114610246576100c2565b806306fdde03146100c7578063095ea7b3146100f25780631249c58b1461012f57806318160ddd1461013957806323b872dd14610164578063313ce567146101a1575b600080fd5b3480156100d357600080fd5b506100dc610353565b6040516100e99190610f64565b60405180910390f35b3480156100fe57600080fd5b506101196004803603810190610114919061101f565b6103e5565b604051610126919061107a565b60405180910390f35b610137610408565b005b34801561014557600080fd5b5061014e610427565b60405161015b91906110a4565b60405180910390f35b34801561017057600080fd5b5061018b600480360381019061018691906110bf565b610431565b604051610198919061107a565b60405180910390f35b3480156101ad57600080fd5b506101b6610460565b6040516101c3919061112e565b60405180910390f35b3480156101d857600080fd5b506101f360048036038101906101ee919061101f565b610469565b604051610200919061107a565b60405180910390f35b34801561021557600080fd5b50610230600480360381019061022b9190611149565b6104a0565b60405161023d91906110a4565b60405180910390f35b34801561025257600080fd5b5061025b6104e8565b6040516102689190610f64565b60405180910390f35b34801561027d57600080fd5b506102986004803603810190610293919061101f565b61057a565b6040516102a5919061107a565b60405180910390f35b3480156102ba57600080fd5b506102d560048036038101906102d0919061101f565b6105f1565b6040516102e2919061107a565b60405180910390f35b3480156102f757600080fd5b50610300610614565b60405161030d91906110a4565b60405180910390f35b34801561032257600080fd5b5061033d60048036038101906103389190611176565b61061a565b60405161034a91906110a4565b60405180910390f35b606060038054610362906111e5565b80601f016020809104026020016040519081016040528092919081815260200182805461038e906111e5565b80156103db5780601f106103b0576101008083540402835291602001916103db565b820191906000526020600020905b8154815290600101906020018083116103be57829003601f168201915b5050505050905090565b6000806103f06106a1565b90506103fd8185856106a9565b600191505092915050565b6000600554346104189190611245565b90506104243382610872565b50565b6000600254905090565b60008061043c6106a1565b90506104498582856109d1565b610454858585610ae4565b60019150509392505050565b60006012905090565b6000806104746106a1565b9050610495818585610486858961061a565b6104909190611287565b6106a9565b600191505092915050565b60008060008373ffffffffffffffffffffffffffffffffffffffff1673ffffffffffffffffffffffffffffffffffffffff168152602001908152602001600020549050919050565b6060600480546104f7906111e5565b80601f0160208091040260200160405190810160405280929190818152602001828054610523906111e5565b80156105705780601f1061054557610100808354040283529160200191610570565b820191906000526020600020905b81548152906001019060200180831161055357829003601f168201915b5050505050905090565b6000806105856106a1565b90506000610593828661061a565b9050838110156105d8576040517f08c379a00000000000000000000000000000000000000000000000000000000081526004016105cf9061132d565b60405180910390fd5b6105e582868684036106a9565b60019250505092915050565b6000806105fc6106a1565b9050610609818585610ae4565b600191505092915050565b60055481565b6000600160008473ffffffffffffffffffffffffffffffffffffffff1673ffffffffffffffffffffffffffffffffffffffff16815260200190815260200160002060008373ffffffffffffffffffffffffffffffffffffffff1673ffffffffffffffffffffffffffffffffffffffff16815260200190815260200160002054905092915050565b600033905090565b600073ffffffffffffffffffffffffffffffffffffffff168373ffffffffffffffffffffffffffffffffffffffff1603610718576040517f08c379a000000000000000000000000000000000000000000000000000000000815260040161070f906113bf565b60405180910390fd5b600073ffffffffffffffffffffffffffffffffffffffff168273ffffffffffffffffffffffffffffffffffffffff1603610787576040517f08c379a000000000000000000000000000000000000000000000000000000000815260040161077e90611451565b60405180910390fd5b80600160008573ffffffffffffffffffffffffffffffffffffffff1673ffffffffffffffffffffffffffffffffffffffff16815260200190815260200160002060008473ffffffffffffffffffffffffffffffffffffffff1673ffffffffffffffffffffffffffffffffffffffff168152602001908152602001600020819055508173ffffffffffffffffffffffffffffffffffffffff168373ffffffffffffffffffffffffffffffffffffffff167f8c5be1e5ebec7d5bd14f71427d1e84f3dd0314c0f7b2291e5b200ac8c7c3b9258360405161086591906110a4565b60405180910390a3505050565b600073ffffffffffffffffffffffffffffffffffffffff168273ffffffffffffffffffffffffffffffffffffffff16036108e1576040517f08c379a00000000000000000000000000000000000000000000000000000000081526004016108d8906114bd565b60405180910390fd5b6108ed60008383610d63565b80600260008282546108ff9190611287565b92505081905550806000808473ffffffffffffffffffffffffffffffffffffffff1673ffffffffffffffffffffffffffffffffffffffff16815260200190815260200160002060008282546109549190611287565b925050819055508173ffffffffffffffffffffffffffffffffffffffff16600073ffffffffffffffffffffffffffffffffffffffff167fddf252ad1be2c89b69c2b068fc378daa952ba7f163c4a11628f55a4df523b3ef836040516109b991906110a4565b60405180910390a36109cd60008383610d68565b5050565b60006109dd848461061a565b90507fffffffffffffffffffffffffffffffffffffffffffffffffffffffffffffffff8114610ade5781811015610ad057610a4e6040518060400160405280601a81526020017f63757272656e74416c6c6f77616e6365203e3d20616d6f756e740000000000008152508284610d6d565b610a8e6040518060400160405280601981526020017f616c6c6f77616e6365286f776e65722c207370656e64657229000000000000008152508585610e0c565b6000610acf576040517f08c379a0000000000000000000000000000000000000000000000000000000008152600401610ac690611529565b60405180910390fd5b5b610add84848484036106a9565b5b50505050565b600073ffffffffffffffffffffffffffffffffffffffff168373ffffffffffffffffffffffffffffffffffffffff1603610b53576040517f08c379a0000000000000000000000000000000000000000000000000000000008152600401610b4a906115bb565b60405180910390fd5b600073ffffffffffffffffffffffffffffffffffffffff168273ffffffffffffffffffffffffffffffffffffffff1603610bc2576040517f08c379a0000000000000000000000000000000000000000000000000000000008152600401610bb99061164d565b60405180910390fd5b610bcd838383610d63565b60008060008573ffffffffffffffffffffffffffffffffffffffff1673ffffffffffffffffffffffffffffffffffffffff16815260200190815260200160002054905081811015610c53576040517f08c379a0000000000000000000000000000000000000000000000000000000008152600401610c4a906116df565b60405180910390fd5b8181036000808673ffffffffffffffffffffffffffffffffffffffff1673ffffffffffffffffffffffffffffffffffffffff16815260200190815260200160002081905550816000808573ffffffffffffffffffffffffffffffffffffffff1673ffffffffffffffffffffffffffffffffffffffff1681526020019081526020016000206000828254610ce69190611287565b925050819055508273ffffffffffffffffffffffffffffffffffffffff168473ffffffffffffffffffffffffffffffffffffffff167fddf252ad1be2c89b69c2b068fc378daa952ba7f163c4a11628f55a4df523b3ef84604051610d4a91906110a4565b60405180910390a3610d5d848484610d68565b50505050565b505050565b505050565b610e07838383604051602401610d85939291906116ff565b6040516020818303038152906040527fca47c4eb000000000000000000000000000000000000000000000000000000007bffffffffffffffffffffffffffffffffffffffffffffffffffffffff19166020820180517bffffffffffffffffffffffffffffffffffffffffffffffffffffffff8381831617835250505050610eab565b505050565b610ea6838383604051602401610e249392919061174c565b6040516020818303038152906040527ffcec75e0000000000000000000000000000000000000000000000000000000007bffffffffffffffffffffffffffffffffffffffffffffffffffffffff19166020820180517bffffffffffffffffffffffffffffffffffffffffffffffffffffffff8381831617835250505050610eab565b505050565b60008151905060006a636f6e736f6c652e6c6f679050602083016000808483855afa5050505050565b600081519050919050565b600082825260208201905092915050565b60005b83811015610f0e578082015181840152602081019050610ef3565b60008484015250505050565b6000601f19601f8301169050919050565b6000610f3682610ed4565b610f408185610edf565b9350610f50818560208601610ef0565b610f5981610f1a565b840191505092915050565b60006020820190508181036000830152610f7e8184610f2b565b905092915050565b600080fd5b600073ffffffffffffffffffffffffffffffffffffffff82169050919050565b6000610fb682610f8b565b9050919050565b610fc681610fab565b8114610fd157600080fd5b50565b600081359050610fe381610fbd565b92915050565b6000819050919050565b610ffc81610fe9565b811461100757600080fd5b50565b60008135905061101981610ff3565b92915050565b6000806040838503121561103657611035610f86565b5b600061104485828601610fd4565b92505060206110558582860161100a565b9150509250929050565b60008115159050919050565b6110748161105f565b82525050565b600060208201905061108f600083018461106b565b92915050565b61109e81610fe9565b82525050565b60006020820190506110b96000830184611095565b92915050565b6000806000606084860312156110d8576110d7610f86565b5b60006110e686828701610fd4565b93505060206110f786828701610fd4565b92505060406111088682870161100a565b9150509250925092565b600060ff82169050919050565b61112881611112565b82525050565b6000602082019050611143600083018461111f565b92915050565b60006020828403121561115f5761115e610f86565b5b600061116d84828501610fd4565b91505092915050565b6000806040838503121561118d5761118c610f86565b5b600061119b85828601610fd4565b92505060206111ac85828601610fd4565b9150509250929050565b7f4e487b7100000000000000000000000000000000000000000000000000000000600052602260045260246000fd5b600060028204905060018216806111fd57607f821691505b6020821081036112105761120f6111b6565b5b50919050565b7f4e487b7100000000000000000000000000000000000000000000000000000000600052601160045260246000fd5b600061125082610fe9565b915061125b83610fe9565b925082820261126981610fe9565b915082820484148315176112805761127f611216565b5b5092915050565b600061129282610fe9565b915061129d83610fe9565b92508282019050808211156112b5576112b4611216565b5b92915050565b7f45524332303a2064656372656173656420616c6c6f77616e63652062656c6f7760008201527f207a65726f000000000000000000000000000000000000000000000000000000602082015250565b6000611317602583610edf565b9150611322826112bb565b604082019050919050565b600060208201905081810360008301526113468161130a565b9050919050565b7f45524332303a20617070726f76652066726f6d20746865207a65726f2061646460008201527f7265737300000000000000000000000000000000000000000000000000000000602082015250565b60006113a9602483610edf565b91506113b48261134d565b604082019050919050565b600060208201905081810360008301526113d88161139c565b9050919050565b7f45524332303a20617070726f766520746f20746865207a65726f20616464726560008201527f7373000000000000000000000000000000000000000000000000000000000000602082015250565b600061143b602283610edf565b9150611446826113df565b604082019050919050565b6000602082019050818103600083015261146a8161142e565b9050919050565b7f45524332303a206d696e7420746f20746865207a65726f206164647265737300600082015250565b60006114a7601f83610edf565b91506114b282611471565b602082019050919050565b600060208201905081810360008301526114d68161149a565b9050919050565b7f45524332303a20696e73756666696369656e7420616c6c6f77616e6365000000600082015250565b6000611513601d83610edf565b915061151e826114dd565b602082019050919050565b6000602082019050818103600083015261154281611506565b9050919050565b7f45524332303a207472616e736665722066726f6d20746865207a65726f20616460008201527f6472657373000000000000000000000000000000000000000000000000000000602082015250565b60006115a5602583610edf565b91506115b082611549565b604082019050919050565b600060208201905081810360008301526115d481611598565b9050919050565b7f45524332303a207472616e7366657220746f20746865207a65726f206164647260008201527f6573730000000000000000000000000000000000000000000000000000000000602082015250565b6000611637602383610edf565b9150611642826115db565b604082019050919050565b600060208201905081810360008301526116668161162a565b9050919050565b7f45524332303a207472616e7366657220616d6f756e742065786365656473206260008201527f616c616e63650000000000000000000000000000000000000000000000000000602082015250565b60006116c9602683610edf565b91506116d48261166d565b604082019050919050565b600060208201905081810360008301526116f8816116bc565b9050919050565b600060608201905081810360008301526117198186610f2b565b90506117286020830185611095565b6117356040830184611095565b949350505050565b61174681610fab565b82525050565b600060608201905081810360008301526117668186610f2b565b9050611775602083018561173d565b611782604083018461173d565b94935050505056fea264697066735822122040851407c9aa9ffeebacf80985b0629e405c9ed28ff26867b63e77b285f7113d64736f6c63430008110033",
  "devdoc": {
    "details": "TODO : Premint permissionlessly add to Staking Contract instead of initialFund().",
    "kind": "dev",
    "methods": {
      "allowance(address,address)": {
        "details": "See {IERC20-allowance}."
      },
      "approve(address,uint256)": {
        "details": "See {IERC20-approve}. NOTE: If `amount` is the maximum `uint256`, the allowance is not updated on `transferFrom`. This is semantically equivalent to an infinite approval. Requirements: - `spender` cannot be the zero address."
      },
      "balanceOf(address)": {
        "details": "See {IERC20-balanceOf}."
      },
      "decimals()": {
        "details": "Returns the number of decimals used to get its user representation. For example, if `decimals` equals `2`, a balance of `505` tokens should be displayed to a user as `5.05` (`505 / 10 ** 2`). Tokens usually opt for a value of 18, imitating the relationship between Ether and Wei. This is the value {ERC20} uses, unless this function is overridden; NOTE: This information is only used for _display_ purposes: it in no way affects any of the arithmetic of the contract, including {IERC20-balanceOf} and {IERC20-transfer}."
      },
      "decreaseAllowance(address,uint256)": {
        "details": "Atomically decreases the allowance granted to `spender` by the caller. This is an alternative to {approve} that can be used as a mitigation for problems described in {IERC20-approve}. Emits an {Approval} event indicating the updated allowance. Requirements: - `spender` cannot be the zero address. - `spender` must have allowance for the caller of at least `subtractedValue`."
      },
      "increaseAllowance(address,uint256)": {
        "details": "Atomically increases the allowance granted to `spender` by the caller. This is an alternative to {approve} that can be used as a mitigation for problems described in {IERC20-approve}. Emits an {Approval} event indicating the updated allowance. Requirements: - `spender` cannot be the zero address."
      },
      "name()": {
        "details": "Returns the name of the token."
      },
      "symbol()": {
        "details": "Returns the symbol of the token, usually a shorter version of the name."
      },
      "totalSupply()": {
        "details": "See {IERC20-totalSupply}."
      },
      "transfer(address,uint256)": {
        "details": "See {IERC20-transfer}. Requirements: - `to` cannot be the zero address. - the caller must have a balance of at least `amount`."
      },
      "transferFrom(address,address,uint256)": {
        "details": "See {IERC20-transferFrom}. Emits an {Approval} event indicating the updated allowance. This is not required by the EIP. See the note at the beginning of {ERC20}. NOTE: Does not update the allowance if the current allowance is the maximum `uint256`. Requirements: - `from` and `to` cannot be the zero address. - `from` must have a balance of at least `amount`. - the caller must have allowance for ``from``'s tokens of at least `amount`."
      }
    },
    "version": 1
  },
  "userdoc": {
    "kind": "user",
    "methods": {},
    "notice": "uncapped token that can be minted by anyone at a price of 100 StakedToken per ETH.",
    "version": 1
  },
  "storageLayout": {
    "storage": [
      {
        "astId": 129,
        "contract": "contracts/StakedToken.sol:StakedToken",
        "label": "_balances",
        "offset": 0,
        "slot": "0",
        "type": "t_mapping(t_address,t_uint256)"
      },
      {
        "astId": 135,
        "contract": "contracts/StakedToken.sol:StakedToken",
        "label": "_allowances",
        "offset": 0,
        "slot": "1",
        "type": "t_mapping(t_address,t_mapping(t_address,t_uint256))"
      },
      {
        "astId": 137,
        "contract": "contracts/StakedToken.sol:StakedToken",
        "label": "_totalSupply",
        "offset": 0,
        "slot": "2",
        "type": "t_uint256"
      },
      {
        "astId": 139,
        "contract": "contracts/StakedToken.sol:StakedToken",
        "label": "_name",
        "offset": 0,
        "slot": "3",
        "type": "t_string_storage"
      },
      {
        "astId": 141,
        "contract": "contracts/StakedToken.sol:StakedToken",
        "label": "_symbol",
        "offset": 0,
        "slot": "4",
        "type": "t_string_storage"
      },
      {
        "astId": 915,
        "contract": "contracts/StakedToken.sol:StakedToken",
        "label": "s_valuePerEth",
        "offset": 0,
        "slot": "5",
        "type": "t_uint256"
      }
    ],
    "types": {
      "t_address": {
        "encoding": "inplace",
        "label": "address",
        "numberOfBytes": "20"
      },
      "t_mapping(t_address,t_mapping(t_address,t_uint256))": {
        "encoding": "mapping",
        "key": "t_address",
        "label": "mapping(address => mapping(address => uint256))",
        "numberOfBytes": "32",
        "value": "t_mapping(t_address,t_uint256)"
      },
      "t_mapping(t_address,t_uint256)": {
        "encoding": "mapping",
        "key": "t_address",
        "label": "mapping(address => uint256)",
        "numberOfBytes": "32",
        "value": "t_uint256"
      },
      "t_string_storage": {
        "encoding": "bytes",
        "label": "string",
        "numberOfBytes": "32"
      },
      "t_uint256": {
        "encoding": "inplace",
        "label": "uint256",
        "numberOfBytes": "32"
      }
    }
  }
}